{
  "contractName": "LendingContract",
  "abi": [
    {
      "inputs": [],
      "stateMutability": "nonpayable",
      "type": "constructor"
    },
    {
      "inputs": [
        {
          "internalType": "address",
          "name": "",
          "type": "address"
        }
      ],
      "name": "balances",
      "outputs": [
        {
          "internalType": "uint256",
          "name": "",
          "type": "uint256"
        }
      ],
      "stateMutability": "view",
      "type": "function"
    },
    {
      "inputs": [
        {
          "internalType": "address",
          "name": "",
          "type": "address"
        }
      ],
      "name": "borrowedAmounts",
      "outputs": [
        {
          "internalType": "uint256",
          "name": "",
          "type": "uint256"
        }
      ],
      "stateMutability": "view",
      "type": "function"
    },
    {
      "inputs": [],
      "name": "owner",
      "outputs": [
        {
          "internalType": "address",
          "name": "",
          "type": "address"
        }
      ],
      "stateMutability": "view",
      "type": "function"
    },
    {
      "inputs": [],
      "name": "deposit",
      "outputs": [],
      "stateMutability": "payable",
      "type": "function"
    },
    {
      "inputs": [
        {
          "internalType": "uint256",
          "name": "amount",
          "type": "uint256"
        }
      ],
      "name": "borrow",
      "outputs": [],
      "stateMutability": "nonpayable",
      "type": "function"
    },
    {
      "inputs": [],
      "name": "repay",
      "outputs": [],
      "stateMutability": "payable",
      "type": "function"
    }
  ],
  "bytecode": "0x608060405234801561000f575f80fd5b50335f806101000a81548173ffffffffffffffffffffffffffffffffffffffff021916908373ffffffffffffffffffffffffffffffffffffffff160217905550610a6e8061005c5f395ff3fe608060405260043610610054575f3560e01c806327e235e314610058578063402d888314610094578063478230f71461009e5780638da5cb5b146100da578063c5ebeaec14610104578063d0e30db01461012c575b5f80fd5b348015610063575f80fd5b5061007e60048036038101906100799190610642565b610136565b60405161008b9190610685565b60405180910390f35b61009c61014b565b005b3480156100a9575f80fd5b506100c460048036038101906100bf9190610642565b610366565b6040516100d19190610685565b60405180910390f35b3480156100e5575f80fd5b506100ee61037b565b6040516100fb91906106ad565b60405180910390f35b34801561010f575f80fd5b5061012a600480360381019061012591906106f0565b61039e565b005b61013461054d565b005b6001602052805f5260405f205f915090505481565b5f341161018d576040517f08c379a00000000000000000000000000000000000000000000000000000000081526004016101849061079b565b60405180910390fd5b5f60025f3373ffffffffffffffffffffffffffffffffffffffff1673ffffffffffffffffffffffffffffffffffffffff1681526020019081526020015f205490505f8111610210576040517f08c379a000000000000000000000000000000000000000000000000000000000815260040161020790610803565b60405180910390fd5b8034106102bc578034610223919061084e565b60015f3373ffffffffffffffffffffffffffffffffffffffff1673ffffffffffffffffffffffffffffffffffffffff1681526020019081526020015f205f82825461026e9190610881565b925050819055505f60025f3373ffffffffffffffffffffffffffffffffffffffff1673ffffffffffffffffffffffffffffffffffffffff1681526020019081526020015f2081905550610363565b3460015f3373ffffffffffffffffffffffffffffffffffffffff1673ffffffffffffffffffffffffffffffffffffffff1681526020019081526020015f205f8282546103089190610881565b925050819055503460025f3373ffffffffffffffffffffffffffffffffffffffff1673ffffffffffffffffffffffffffffffffffffffff1681526020019081526020015f205f82825461035b919061084e565b925050819055505b50565b6002602052805f5260405f205f915090505481565b5f8054906101000a900473ffffffffffffffffffffffffffffffffffffffff1681565b5f81116103e0576040517f08c379a00000000000000000000000000000000000000000000000000000000081526004016103d790610924565b60405180910390fd5b8060015f3373ffffffffffffffffffffffffffffffffffffffff1673ffffffffffffffffffffffffffffffffffffffff1681526020019081526020015f20541015610460576040517f08c379a00000000000000000000000000000000000000000000000000000000081526004016104579061098c565b60405180910390fd5b8060025f3373ffffffffffffffffffffffffffffffffffffffff1673ffffffffffffffffffffffffffffffffffffffff1681526020019081526020015f205f8282546104ac9190610881565b925050819055508060015f3373ffffffffffffffffffffffffffffffffffffffff1673ffffffffffffffffffffffffffffffffffffffff1681526020019081526020015f205f8282546104ff919061084e565b925050819055503373ffffffffffffffffffffffffffffffffffffffff166108fc8290811502906040515f60405180830381858888f19350505050158015610549573d5f803e3d5ffd5b5050565b5f341161058f576040517f08c379a000000000000000000000000000000000000000000000000000000000815260040161058690610a1a565b60405180910390fd5b3460015f3373ffffffffffffffffffffffffffffffffffffffff1673ffffffffffffffffffffffffffffffffffffffff1681526020019081526020015f205f8282546105db9190610881565b92505081905550565b5f80fd5b5f73ffffffffffffffffffffffffffffffffffffffff82169050919050565b5f610611826105e8565b9050919050565b61062181610607565b811461062b575f80fd5b50565b5f8135905061063c81610618565b92915050565b5f60208284031215610657576106566105e4565b5b5f6106648482850161062e565b91505092915050565b5f819050919050565b61067f8161066d565b82525050565b5f6020820190506106985f830184610676565b92915050565b6106a781610607565b82525050565b5f6020820190506106c05f83018461069e565b92915050565b6106cf8161066d565b81146106d9575f80fd5b50565b5f813590506106ea816106c6565b92915050565b5f60208284031215610705576107046105e4565b5b5f610712848285016106dc565b91505092915050565b5f82825260208201905092915050565b7f52657061796d656e7420616d6f756e74206d75737420626520677265617465725f8201527f207468616e203000000000000000000000000000000000000000000000000000602082015250565b5f61078560278361071b565b91506107908261072b565b604082019050919050565b5f6020820190508181035f8301526107b281610779565b9050919050565b7f4e6f20626f72726f77656420616d6f756e7420746f20726570617900000000005f82015250565b5f6107ed601b8361071b565b91506107f8826107b9565b602082019050919050565b5f6020820190508181035f83015261081a816107e1565b9050919050565b7f4e487b71000000000000000000000000000000000000000000000000000000005f52601160045260245ffd5b5f6108588261066d565b91506108638361066d565b925082820390508181111561087b5761087a610821565b5b92915050565b5f61088b8261066d565b91506108968361066d565b92508282019050808211156108ae576108ad610821565b5b92915050565b7f426f72726f7720616d6f756e74206d75737420626520677265617465722074685f8201527f616e203000000000000000000000000000000000000000000000000000000000602082015250565b5f61090e60248361071b565b9150610919826108b4565b604082019050919050565b5f6020820190508181035f83015261093b81610902565b9050919050565b7f496e73756666696369656e742062616c616e63650000000000000000000000005f82015250565b5f61097660148361071b565b915061098182610942565b602082019050919050565b5f6020820190508181035f8301526109a38161096a565b9050919050565b7f4465706f73697420616d6f756e74206d757374206265206772656174657220745f8201527f68616e2030000000000000000000000000000000000000000000000000000000602082015250565b5f610a0460258361071b565b9150610a0f826109aa565b604082019050919050565b5f6020820190508181035f830152610a31816109f8565b905091905056fea26469706673582212204bf8e5b507ff918cf33399a2bab87ae37c13bf4d44accfb7917ad603122b246964736f6c63430008150033",
  "immutableReferences": {},
  "source": "// SPDX-License-Identifier: MIT\npragma solidity ^0.8.0;\n\ncontract LendingContract {\n    address public owner;\n    mapping(address => uint256) public balances;\n    mapping(address => uint256) public borrowedAmounts;\n\n    constructor() {\n        owner = msg.sender;\n    }\n\n    modifier onlyOwner() {\n        require(msg.sender == owner, \"Only the owner can call this function\");\n        _;\n    }\n\n    // Users can deposit assets into the contract\n    function deposit() external payable {\n        require(msg.value > 0, \"Deposit amount must be greater than 0\");\n        balances[msg.sender] += msg.value;\n    }\n\n    // Users can borrow assets up to a certain limit (based on their collateral)\n    function borrow(uint256 amount) external {\n        require(amount > 0, \"Borrow amount must be greater than 0\");\n        require(balances[msg.sender] >= amount, \"Insufficient balance\");\n\n        borrowedAmounts[msg.sender] += amount;\n        balances[msg.sender] -= amount;\n        payable(msg.sender).transfer(amount);\n    }\n\n    // Users can repay borrowed assets\n    function repay() external payable {\n        require(msg.value > 0, \"Repayment amount must be greater than 0\");\n        uint256 borrowedAmount = borrowedAmounts[msg.sender];\n        require(borrowedAmount > 0, \"No borrowed amount to repay\");\n\n        if (msg.value >= borrowedAmount) {\n            // Full repayment\n            balances[msg.sender] += msg.value - borrowedAmount;\n            borrowedAmounts[msg.sender] = 0;\n        } else {\n            // Partial repayment\n            balances[msg.sender] += msg.value;\n            borrowedAmounts[msg.sender] -= msg.value;\n        }\n    }\n}\n",
  "sourcePath": "/Users/aratrika/Documents/BLOCKCHAIN DEVELOPMENT/Fall Semester/BCDV 4028/BCDV 4028 Assignments/Lab 03/contracts/LendingContract.sol",
  "compiler": {
    "name": "solc",
    "version": "0.8.21+commit.d9974bed.Emscripten.clang"
  },
  "schemaVersion": "3.4.16",
  "updatedAt": "2023-09-30T09:47:07.488Z",
  "devdoc": {
    "kind": "dev",
    "methods": {},
    "version": 1
  },
  "userdoc": {
    "kind": "user",
    "methods": {},
    "version": 1
  }
}