{
  "contractName": "BridgeGojo",
  "abi": [
    {
      "inputs": [
        {
          "internalType": "address",
          "name": "_tokenGojo",
          "type": "address"
        }
      ],
      "stateMutability": "nonpayable",
      "type": "constructor"
    },
    {
      "anonymous": false,
      "inputs": [
        {
          "indexed": true,
          "internalType": "address",
          "name": "sender",
          "type": "address"
        },
        {
          "indexed": false,
          "internalType": "uint256",
          "name": "amount",
          "type": "uint256"
        }
      ],
      "name": "TokensDeposited",
      "type": "event"
    },
    {
      "anonymous": false,
      "inputs": [
        {
          "indexed": true,
          "internalType": "address",
          "name": "recipient",
          "type": "address"
        },
        {
          "indexed": false,
          "internalType": "uint256",
          "name": "amount",
          "type": "uint256"
        }
      ],
      "name": "TokensWithdrawn",
      "type": "event"
    },
    {
      "inputs": [],
      "name": "bridgeSukuna",
      "outputs": [
        {
          "internalType": "address",
          "name": "",
          "type": "address"
        }
      ],
      "stateMutability": "view",
      "type": "function",
      "constant": true
    },
    {
      "inputs": [
        {
          "internalType": "address",
          "name": "",
          "type": "address"
        }
      ],
      "name": "deposits",
      "outputs": [
        {
          "internalType": "uint256",
          "name": "",
          "type": "uint256"
        }
      ],
      "stateMutability": "view",
      "type": "function",
      "constant": true
    },
    {
      "inputs": [],
      "name": "tokenGojo",
      "outputs": [
        {
          "internalType": "contract TokenGojo",
          "name": "",
          "type": "address"
        }
      ],
      "stateMutability": "view",
      "type": "function",
      "constant": true
    },
    {
      "inputs": [
        {
          "internalType": "address",
          "name": "_bridgeSukuna",
          "type": "address"
        }
      ],
      "name": "setBridgeSukuna",
      "outputs": [],
      "stateMutability": "nonpayable",
      "type": "function"
    },
    {
      "inputs": [
        {
          "internalType": "uint256",
          "name": "amount",
          "type": "uint256"
        }
      ],
      "name": "deposit",
      "outputs": [],
      "stateMutability": "nonpayable",
      "type": "function"
    },
    {
      "inputs": [
        {
          "internalType": "uint256",
          "name": "amount",
          "type": "uint256"
        }
      ],
      "name": "withdraw",
      "outputs": [],
      "stateMutability": "nonpayable",
      "type": "function"
    }
  ],
  "bytecode": "0x608060405234801561000f575f80fd5b50604051610bfd380380610bfd833981810160405281019061003191906100d4565b805f806101000a81548173ffffffffffffffffffffffffffffffffffffffff021916908373ffffffffffffffffffffffffffffffffffffffff160217905550506100ff565b5f80fd5b5f73ffffffffffffffffffffffffffffffffffffffff82169050919050565b5f6100a38261007a565b9050919050565b6100b381610099565b81146100bd575f80fd5b50565b5f815190506100ce816100aa565b92915050565b5f602082840312156100e9576100e8610076565b5b5f6100f6848285016100c0565b91505092915050565b610af18061010c5f395ff3fe608060405234801561000f575f80fd5b5060043610610060575f3560e01c806309e7a1c3146100645780632e1a7d4d146100825780637dabb99d1461009e578063b6b55f25146100bc578063f68cb1e4146100d8578063fc7e286d146100f4575b5f80fd5b61006c610124565b604051610079919061068b565b60405180910390f35b61009c600480360381019061009791906106db565b610147565b005b6100a66103d3565b6040516100b39190610726565b60405180910390f35b6100d660048036038101906100d191906106db565b6103f8565b005b6100f260048036038101906100ed9190610769565b6105b9565b005b61010e60048036038101906101099190610769565b6105fc565b60405161011b91906107a3565b60405180910390f35b5f8054906101000a900473ffffffffffffffffffffffffffffffffffffffff1681565b5f73ffffffffffffffffffffffffffffffffffffffff1660015f9054906101000a900473ffffffffffffffffffffffffffffffffffffffff1673ffffffffffffffffffffffffffffffffffffffff16036101d6576040517f08c379a00000000000000000000000000000000000000000000000000000000081526004016101cd90610816565b60405180910390fd5b8060025f3373ffffffffffffffffffffffffffffffffffffffff1673ffffffffffffffffffffffffffffffffffffffff1681526020019081526020015f20541015610256576040517f08c379a000000000000000000000000000000000000000000000000000000000815260040161024d9061087e565b60405180910390fd5b8060025f3373ffffffffffffffffffffffffffffffffffffffff1673ffffffffffffffffffffffffffffffffffffffff1681526020019081526020015f205f8282546102a291906108c9565b925050819055505f8054906101000a900473ffffffffffffffffffffffffffffffffffffffff1673ffffffffffffffffffffffffffffffffffffffff1663a9059cbb33836040518363ffffffff1660e01b81526004016103039291906108fc565b6020604051808303815f875af115801561031f573d5f803e3d5ffd5b505050506040513d601f19601f820116820180604052508101906103439190610958565b610382576040517f08c379a0000000000000000000000000000000000000000000000000000000008152600401610379906109cd565b60405180910390fd5b3373ffffffffffffffffffffffffffffffffffffffff167f6352c5382c4a4578e712449ca65e83cdb392d045dfcf1cad9615189db2da244b826040516103c891906107a3565b60405180910390a250565b60015f9054906101000a900473ffffffffffffffffffffffffffffffffffffffff1681565b5f811161043a576040517f08c379a000000000000000000000000000000000000000000000000000000000815260040161043190610a35565b60405180910390fd5b5f8054906101000a900473ffffffffffffffffffffffffffffffffffffffff1673ffffffffffffffffffffffffffffffffffffffff166323b872dd3330846040518463ffffffff1660e01b815260040161049693929190610a53565b6020604051808303815f875af11580156104b2573d5f803e3d5ffd5b505050506040513d601f19601f820116820180604052508101906104d69190610958565b610515576040517f08c379a000000000000000000000000000000000000000000000000000000000815260040161050c906109cd565b60405180910390fd5b8060025f3373ffffffffffffffffffffffffffffffffffffffff1673ffffffffffffffffffffffffffffffffffffffff1681526020019081526020015f205f8282546105619190610a88565b925050819055503373ffffffffffffffffffffffffffffffffffffffff167f59062170a285eb80e8c6b8ced60428442a51910635005233fc4ce084a475845e826040516105ae91906107a3565b60405180910390a250565b8060015f6101000a81548173ffffffffffffffffffffffffffffffffffffffff021916908373ffffffffffffffffffffffffffffffffffffffff16021790555050565b6002602052805f5260405f205f915090505481565b5f73ffffffffffffffffffffffffffffffffffffffff82169050919050565b5f819050919050565b5f61065361064e61064984610611565b610630565b610611565b9050919050565b5f61066482610639565b9050919050565b5f6106758261065a565b9050919050565b6106858161066b565b82525050565b5f60208201905061069e5f83018461067c565b92915050565b5f80fd5b5f819050919050565b6106ba816106a8565b81146106c4575f80fd5b50565b5f813590506106d5816106b1565b92915050565b5f602082840312156106f0576106ef6106a4565b5b5f6106fd848285016106c7565b91505092915050565b5f61071082610611565b9050919050565b61072081610706565b82525050565b5f6020820190506107395f830184610717565b92915050565b61074881610706565b8114610752575f80fd5b50565b5f813590506107638161073f565b92915050565b5f6020828403121561077e5761077d6106a4565b5b5f61078b84828501610755565b91505092915050565b61079d816106a8565b82525050565b5f6020820190506107b65f830184610794565b92915050565b5f82825260208201905092915050565b7f4272696467654253432061646472657373206e6f7420736574000000000000005f82015250565b5f6108006019836107bc565b915061080b826107cc565b602082019050919050565b5f6020820190508181035f83015261082d816107f4565b9050919050565b7f496e73756666696369656e742062616c616e63650000000000000000000000005f82015250565b5f6108686014836107bc565b915061087382610834565b602082019050919050565b5f6020820190508181035f8301526108958161085c565b9050919050565b7f4e487b71000000000000000000000000000000000000000000000000000000005f52601160045260245ffd5b5f6108d3826106a8565b91506108de836106a8565b92508282039050818111156108f6576108f561089c565b5b92915050565b5f60408201905061090f5f830185610717565b61091c6020830184610794565b9392505050565b5f8115159050919050565b61093781610923565b8114610941575f80fd5b50565b5f815190506109528161092e565b92915050565b5f6020828403121561096d5761096c6106a4565b5b5f61097a84828501610944565b91505092915050565b7f5472616e73666572206661696c656400000000000000000000000000000000005f82015250565b5f6109b7600f836107bc565b91506109c282610983565b602082019050919050565b5f6020820190508181035f8301526109e4816109ab565b9050919050565b7f416d6f756e74206d7573742062652067726561746572207468616e207a65726f5f82015250565b5f610a1f6020836107bc565b9150610a2a826109eb565b602082019050919050565b5f6020820190508181035f830152610a4c81610a13565b9050919050565b5f606082019050610a665f830186610717565b610a736020830185610717565b610a806040830184610794565b949350505050565b5f610a92826106a8565b9150610a9d836106a8565b9250828201905080821115610ab557610ab461089c565b5b9291505056fea2646970667358221220671d81f6aa50c21765cf3c1d8635975a37cfc5a27c1fad2d790fc67535409b5964736f6c63430008150033",
  "immutableReferences": {},
  "source": "// SPDX-License-Identifier: MIT\npragma solidity ^0.8.0;\nimport \"./TokenGojo.sol\";\ncontract BridgeGojo {\n    TokenGojo public tokenGojo;\n    address public bridgeSukuna;\n    mapping(address => uint256) public deposits;\n    event TokensDeposited(address indexed sender, uint256 amount);\n    event TokensWithdrawn(address indexed recipient, uint256 amount);\n    constructor(address _tokenGojo) {\n        tokenGojo = TokenGojo(_tokenGojo);\n    }\n    function setBridgeSukuna(address _bridgeSukuna) external {\n        bridgeSukuna = _bridgeSukuna;\n    }\n\n    function deposit(uint256 amount) external {\n        require(amount > 0, \"Amount must be greater than zero\");\n        require(tokenGojo.transferFrom(msg.sender, address(this), amount), \"Transfer failed\");\n\n        deposits[msg.sender] += amount;\n\n        emit TokensDeposited(msg.sender, amount);\n    }\n\n    function withdraw(uint256 amount) external {\n        require(bridgeSukuna != address(0), \"BridgeBSC address not set\");\n        require(deposits[msg.sender] >= amount, \"Insufficient balance\");\n\n        deposits[msg.sender] -= amount;\n        require(tokenGojo.transfer(msg.sender, amount), \"Transfer failed\");\n\n        emit TokensWithdrawn(msg.sender, amount);\n    }\n}\n",
  "sourcePath": "/Users/aratrika/Documents/BLOCKCHAIN DEVELOPMENT/Fall Semester/BCDV 4028/BCDV 4028 Assignments/Assignment 01/contracts/BridgeGojo.sol",
  "compiler": {
    "name": "solc",
    "version": "0.8.21+commit.d9974bed.Emscripten.clang"
  },
  "schemaVersion": "3.4.16",
  "updatedAt": "2023-10-01T00:10:13.609Z",
  "networkType": "ethereum",
  "devdoc": {
    "kind": "dev",
    "methods": {},
    "version": 1
  },
  "userdoc": {
    "kind": "user",
    "methods": {},
    "version": 1
  }
}