{
  "contractName": "TokenGojo",
  "abi": [
    {
      "anonymous": false,
      "inputs": [
        {
          "indexed": true,
          "internalType": "address",
          "name": "owner",
          "type": "address"
        },
        {
          "indexed": true,
          "internalType": "address",
          "name": "spender",
          "type": "address"
        },
        {
          "indexed": false,
          "internalType": "uint256",
          "name": "value",
          "type": "uint256"
        }
      ],
      "name": "Approval",
      "type": "event"
    },
    {
      "anonymous": false,
      "inputs": [
        {
          "indexed": true,
          "internalType": "address",
          "name": "from",
          "type": "address"
        },
        {
          "indexed": true,
          "internalType": "address",
          "name": "to",
          "type": "address"
        },
        {
          "indexed": false,
          "internalType": "uint256",
          "name": "value",
          "type": "uint256"
        }
      ],
      "name": "Transfer",
      "type": "event"
    },
    {
      "inputs": [
        {
          "internalType": "address",
          "name": "",
          "type": "address"
        },
        {
          "internalType": "address",
          "name": "",
          "type": "address"
        }
      ],
      "name": "allowance",
      "outputs": [
        {
          "internalType": "uint256",
          "name": "",
          "type": "uint256"
        }
      ],
      "stateMutability": "view",
      "type": "function",
      "constant": true
    },
    {
      "inputs": [
        {
          "internalType": "address",
          "name": "",
          "type": "address"
        }
      ],
      "name": "balanceOf",
      "outputs": [
        {
          "internalType": "uint256",
          "name": "",
          "type": "uint256"
        }
      ],
      "stateMutability": "view",
      "type": "function",
      "constant": true
    },
    {
      "inputs": [],
      "name": "decimals",
      "outputs": [
        {
          "internalType": "uint8",
          "name": "",
          "type": "uint8"
        }
      ],
      "stateMutability": "view",
      "type": "function",
      "constant": true
    },
    {
      "inputs": [],
      "name": "name",
      "outputs": [
        {
          "internalType": "string",
          "name": "",
          "type": "string"
        }
      ],
      "stateMutability": "view",
      "type": "function",
      "constant": true
    },
    {
      "inputs": [],
      "name": "symbol",
      "outputs": [
        {
          "internalType": "string",
          "name": "",
          "type": "string"
        }
      ],
      "stateMutability": "view",
      "type": "function",
      "constant": true
    },
    {
      "inputs": [],
      "name": "totalSupply",
      "outputs": [
        {
          "internalType": "uint256",
          "name": "",
          "type": "uint256"
        }
      ],
      "stateMutability": "view",
      "type": "function",
      "constant": true
    },
    {
      "inputs": [
        {
          "internalType": "address",
          "name": "recipient",
          "type": "address"
        },
        {
          "internalType": "uint256",
          "name": "amount",
          "type": "uint256"
        }
      ],
      "name": "transfer",
      "outputs": [
        {
          "internalType": "bool",
          "name": "",
          "type": "bool"
        }
      ],
      "stateMutability": "nonpayable",
      "type": "function"
    },
    {
      "inputs": [
        {
          "internalType": "address",
          "name": "spender",
          "type": "address"
        },
        {
          "internalType": "uint256",
          "name": "amount",
          "type": "uint256"
        }
      ],
      "name": "approve",
      "outputs": [
        {
          "internalType": "bool",
          "name": "",
          "type": "bool"
        }
      ],
      "stateMutability": "nonpayable",
      "type": "function"
    },
    {
      "inputs": [
        {
          "internalType": "address",
          "name": "sender",
          "type": "address"
        },
        {
          "internalType": "address",
          "name": "recipient",
          "type": "address"
        },
        {
          "internalType": "uint256",
          "name": "amount",
          "type": "uint256"
        }
      ],
      "name": "transferFrom",
      "outputs": [
        {
          "internalType": "bool",
          "name": "",
          "type": "bool"
        }
      ],
      "stateMutability": "nonpayable",
      "type": "function"
    },
    {
      "inputs": [
        {
          "internalType": "uint256",
          "name": "amount",
          "type": "uint256"
        }
      ],
      "name": "mint",
      "outputs": [],
      "stateMutability": "nonpayable",
      "type": "function"
    },
    {
      "inputs": [
        {
          "internalType": "uint256",
          "name": "amount",
          "type": "uint256"
        }
      ],
      "name": "burn",
      "outputs": [],
      "stateMutability": "nonpayable",
      "type": "function"
    }
  ],
  "bytecode": "0x60806040526040518060400160405280600481526020017f476f6a6f00000000000000000000000000000000000000000000000000000000815250600390816200004a919062000324565b506040518060400160405280600481526020017f474f4a4f000000000000000000000000000000000000000000000000000000008152506004908162000091919062000324565b50601260055f6101000a81548160ff021916908360ff160217905550348015620000b9575f80fd5b5062000408565b5f81519050919050565b7f4e487b71000000000000000000000000000000000000000000000000000000005f52604160045260245ffd5b7f4e487b71000000000000000000000000000000000000000000000000000000005f52602260045260245ffd5b5f60028204905060018216806200013c57607f821691505b602082108103620001525762000151620000f7565b5b50919050565b5f819050815f5260205f209050919050565b5f6020601f8301049050919050565b5f82821b905092915050565b5f60088302620001b67fffffffffffffffffffffffffffffffffffffffffffffffffffffffffffffffff8262000179565b620001c2868362000179565b95508019841693508086168417925050509392505050565b5f819050919050565b5f819050919050565b5f6200020c620002066200020084620001da565b620001e3565b620001da565b9050919050565b5f819050919050565b6200022783620001ec565b6200023f620002368262000213565b84845462000185565b825550505050565b5f90565b6200025562000247565b620002628184846200021c565b505050565b5b8181101562000289576200027d5f826200024b565b60018101905062000268565b5050565b601f821115620002d857620002a28162000158565b620002ad846200016a565b81016020851015620002bd578190505b620002d5620002cc856200016a565b83018262000267565b50505b505050565b5f82821c905092915050565b5f620002fa5f1984600802620002dd565b1980831691505092915050565b5f620003148383620002e9565b9150826002028217905092915050565b6200032f82620000c0565b67ffffffffffffffff8111156200034b576200034a620000ca565b5b62000357825462000124565b620003648282856200028d565b5f60209050601f8311600181146200039a575f841562000385578287015190505b62000391858262000307565b86555062000400565b601f198416620003aa8662000158565b5f5b82811015620003d357848901518255600182019150602085019450602081019050620003ac565b86831015620003f35784890151620003ef601f891682620002e9565b8355505b6001600288020188555050505b505050505050565b610d0d80620004165f395ff3fe608060405234801561000f575f80fd5b50600436106100a7575f3560e01c806342966c681161006f57806342966c681461016557806370a082311461018157806395d89b41146101b1578063a0712d68146101cf578063a9059cbb146101eb578063dd62ed3e1461021b576100a7565b806306fdde03146100ab578063095ea7b3146100c957806318160ddd146100f957806323b872dd14610117578063313ce56714610147575b5f80fd5b6100b361024b565b6040516100c09190610985565b60405180910390f35b6100e360048036038101906100de9190610a36565b6102d7565b6040516100f09190610a8e565b60405180910390f35b6101016103c4565b60405161010e9190610ab6565b60405180910390f35b610131600480360381019061012c9190610acf565b6103c9565b60405161013e9190610a8e565b60405180910390f35b61014f61056e565b60405161015c9190610b3a565b60405180910390f35b61017f600480360381019061017a9190610b53565b610580565b005b61019b60048036038101906101969190610b7e565b610652565b6040516101a89190610ab6565b60405180910390f35b6101b9610667565b6040516101c69190610985565b60405180910390f35b6101e960048036038101906101e49190610b53565b6106f3565b005b61020560048036038101906102009190610a36565b6107c5565b6040516102129190610a8e565b60405180910390f35b61023560048036038101906102309190610ba9565b6108db565b6040516102429190610ab6565b60405180910390f35b6003805461025890610c14565b80601f016020809104026020016040519081016040528092919081815260200182805461028490610c14565b80156102cf5780601f106102a6576101008083540402835291602001916102cf565b820191905f5260205f20905b8154815290600101906020018083116102b257829003601f168201915b505050505081565b5f8160025f3373ffffffffffffffffffffffffffffffffffffffff1673ffffffffffffffffffffffffffffffffffffffff1681526020019081526020015f205f8573ffffffffffffffffffffffffffffffffffffffff1673ffffffffffffffffffffffffffffffffffffffff1681526020019081526020015f20819055508273ffffffffffffffffffffffffffffffffffffffff163373ffffffffffffffffffffffffffffffffffffffff167f8c5be1e5ebec7d5bd14f71427d1e84f3dd0314c0f7b2291e5b200ac8c7c3b925846040516103b29190610ab6565b60405180910390a36001905092915050565b5f5481565b5f8160025f8673ffffffffffffffffffffffffffffffffffffffff1673ffffffffffffffffffffffffffffffffffffffff1681526020019081526020015f205f3373ffffffffffffffffffffffffffffffffffffffff1673ffffffffffffffffffffffffffffffffffffffff1681526020019081526020015f205f8282546104519190610c71565b925050819055508160015f8673ffffffffffffffffffffffffffffffffffffffff1673ffffffffffffffffffffffffffffffffffffffff1681526020019081526020015f205f8282546104a49190610c71565b925050819055508160015f8573ffffffffffffffffffffffffffffffffffffffff1673ffffffffffffffffffffffffffffffffffffffff1681526020019081526020015f205f8282546104f79190610ca4565b925050819055508273ffffffffffffffffffffffffffffffffffffffff168473ffffffffffffffffffffffffffffffffffffffff167fddf252ad1be2c89b69c2b068fc378daa952ba7f163c4a11628f55a4df523b3ef8460405161055b9190610ab6565b60405180910390a3600190509392505050565b60055f9054906101000a900460ff1681565b8060015f3373ffffffffffffffffffffffffffffffffffffffff1673ffffffffffffffffffffffffffffffffffffffff1681526020019081526020015f205f8282546105cc9190610c71565b92505081905550805f808282546105e39190610c71565b925050819055505f73ffffffffffffffffffffffffffffffffffffffff163373ffffffffffffffffffffffffffffffffffffffff167fddf252ad1be2c89b69c2b068fc378daa952ba7f163c4a11628f55a4df523b3ef836040516106479190610ab6565b60405180910390a350565b6001602052805f5260405f205f915090505481565b6004805461067490610c14565b80601f01602080910402602001604051908101604052809291908181526020018280546106a090610c14565b80156106eb5780601f106106c2576101008083540402835291602001916106eb565b820191905f5260205f20905b8154815290600101906020018083116106ce57829003601f168201915b505050505081565b8060015f3373ffffffffffffffffffffffffffffffffffffffff1673ffffffffffffffffffffffffffffffffffffffff1681526020019081526020015f205f82825461073f9190610ca4565b92505081905550805f808282546107569190610ca4565b925050819055503373ffffffffffffffffffffffffffffffffffffffff165f73ffffffffffffffffffffffffffffffffffffffff167fddf252ad1be2c89b69c2b068fc378daa952ba7f163c4a11628f55a4df523b3ef836040516107ba9190610ab6565b60405180910390a350565b5f8160015f3373ffffffffffffffffffffffffffffffffffffffff1673ffffffffffffffffffffffffffffffffffffffff1681526020019081526020015f205f8282546108129190610c71565b925050819055508160015f8573ffffffffffffffffffffffffffffffffffffffff1673ffffffffffffffffffffffffffffffffffffffff1681526020019081526020015f205f8282546108659190610ca4565b925050819055508273ffffffffffffffffffffffffffffffffffffffff163373ffffffffffffffffffffffffffffffffffffffff167fddf252ad1be2c89b69c2b068fc378daa952ba7f163c4a11628f55a4df523b3ef846040516108c99190610ab6565b60405180910390a36001905092915050565b6002602052815f5260405f20602052805f5260405f205f91509150505481565b5f81519050919050565b5f82825260208201905092915050565b5f5b83811015610932578082015181840152602081019050610917565b5f8484015250505050565b5f601f19601f8301169050919050565b5f610957826108fb565b6109618185610905565b9350610971818560208601610915565b61097a8161093d565b840191505092915050565b5f6020820190508181035f83015261099d818461094d565b905092915050565b5f80fd5b5f73ffffffffffffffffffffffffffffffffffffffff82169050919050565b5f6109d2826109a9565b9050919050565b6109e2816109c8565b81146109ec575f80fd5b50565b5f813590506109fd816109d9565b92915050565b5f819050919050565b610a1581610a03565b8114610a1f575f80fd5b50565b5f81359050610a3081610a0c565b92915050565b5f8060408385031215610a4c57610a4b6109a5565b5b5f610a59858286016109ef565b9250506020610a6a85828601610a22565b9150509250929050565b5f8115159050919050565b610a8881610a74565b82525050565b5f602082019050610aa15f830184610a7f565b92915050565b610ab081610a03565b82525050565b5f602082019050610ac95f830184610aa7565b92915050565b5f805f60608486031215610ae657610ae56109a5565b5b5f610af3868287016109ef565b9350506020610b04868287016109ef565b9250506040610b1586828701610a22565b9150509250925092565b5f60ff82169050919050565b610b3481610b1f565b82525050565b5f602082019050610b4d5f830184610b2b565b92915050565b5f60208284031215610b6857610b676109a5565b5b5f610b7584828501610a22565b91505092915050565b5f60208284031215610b9357610b926109a5565b5b5f610ba0848285016109ef565b91505092915050565b5f8060408385031215610bbf57610bbe6109a5565b5b5f610bcc858286016109ef565b9250506020610bdd858286016109ef565b9150509250929050565b7f4e487b71000000000000000000000000000000000000000000000000000000005f52602260045260245ffd5b5f6002820490506001821680610c2b57607f821691505b602082108103610c3e57610c3d610be7565b5b50919050565b7f4e487b71000000000000000000000000000000000000000000000000000000005f52601160045260245ffd5b5f610c7b82610a03565b9150610c8683610a03565b9250828203905081811115610c9e57610c9d610c44565b5b92915050565b5f610cae82610a03565b9150610cb983610a03565b9250828201905080821115610cd157610cd0610c44565b5b9291505056fea26469706673582212201e9397186a3e34920ca1abfb6b2cf67de049252dd65a40aa4f2dbc01efde41d164736f6c63430008150033",
  "immutableReferences": {},
  "source": "// SPDX-License-Identifier: MIT\npragma solidity ^0.8.0;\n\ninterface IERC20 {\n    function totalSupply() external view returns (uint);\n    function balanceOf(address account) external view returns (uint);\n    function transfer(address recipient, uint amount) external returns (bool);\n    function allowance(address owner, address spender) external view returns (uint);\n    function approve(address spender, uint amount) external returns (bool);\n    function transferFrom(\n        address sender,\n        address recipient,\n        uint amount\n    ) external returns (bool);\n\n    event Transfer(address indexed from, address indexed to, uint value);\n    event Approval(address indexed owner, address indexed spender, uint value);\n}\n\n\ncontract TokenGojo is IERC20 {\n    uint public totalSupply;\n    mapping(address => uint) public balanceOf;\n    mapping(address => mapping(address => uint)) public allowance;\n    string public name = \"Gojo\";\n    string public symbol = \"GOJO\";\n    uint8 public decimals = 18;\n\n    function transfer(address recipient, uint amount) external returns (bool) {\n        balanceOf[msg.sender] -= amount;\n        balanceOf[recipient] += amount;\n        emit Transfer(msg.sender, recipient, amount);\n        return true;\n    }\n\n    function approve(address spender, uint amount) external returns (bool) {\n        allowance[msg.sender][spender] = amount;\n        emit Approval(msg.sender, spender, amount);\n        return true;\n    }\n\n    function transferFrom(\n        address sender,\n        address recipient,\n        uint amount\n    ) external returns (bool) {\n        allowance[sender][msg.sender] -= amount;\n        balanceOf[sender] -= amount;\n        balanceOf[recipient] += amount;\n        emit Transfer(sender, recipient, amount);\n        return true;\n    }\n\n    function mint(uint amount) external {\n        balanceOf[msg.sender] += amount;\n        totalSupply += amount;\n        emit Transfer(address(0), msg.sender, amount);\n    }\n\n    function burn(uint amount) external {\n        balanceOf[msg.sender] -= amount;\n        totalSupply -= amount;\n        emit Transfer(msg.sender, address(0), amount);\n    }\n}\n",
  "sourcePath": "/Users/aratrika/Documents/BLOCKCHAIN DEVELOPMENT/Fall Semester/BCDV 4028/BCDV 4028 Assignments/Assignment 01/contracts/TokenGojo.sol",
  "compiler": {
    "name": "solc",
    "version": "0.8.21+commit.d9974bed.Emscripten.clang"
  },
  "schemaVersion": "3.4.16",
  "updatedAt": "2023-10-01T01:31:01.250Z",
  "networkType": "ethereum",
  "devdoc": {
    "kind": "dev",
    "methods": {},
    "version": 1
  },
  "userdoc": {
    "kind": "user",
    "methods": {},
    "version": 1
  }
}